:020000040800F2
:10000000A00400209D010008ED1400082D14000834
:10001000E9140008D1020008D11700080000000010
:10002000000000000000000000000000F5140008BF
:10003000D502000800000000F1140008F9140008BF
:10004000B7010008B7010008B7010008B7010008B0
:10005000B7010008B7010008B7010008B7010008A0
:10006000B7010008B7010008B7010008B701000890
:10007000B7010008B7010008B7010008B701000880
:10008000B7010008B7010008B7010008B701000870
:10009000B7010008B7010008B7010008B701000860
:1000A000B7010008B7010008B7010008B701000850
:1000B000B7010008B7010008B7010008B701000840
:1000C000B7010008B7010008B7010008B701000830
:1000D000B7010008C5170008B7010008B7010008FC
:1000E000B7010008B7010008B7010008B701000810
:1000F000B7010008B7010008B7010008B701000800
:10010000B7010008B7010008B7010008B7010008EF
:10011000B7010008B7010008B7010008B7010008DF
:10012000B7010008B7010008B7010008B7010008CF
:10013000B7010008B7010008B7010008B7010008BF
:10014000B7010008B7010008B7010008B7010008AF
:10015000B7010008B7010008B7010008B70100089F
:10016000B7010008B7010008B7010008B70100088F
:10017000B7010008B7010008B7010008000000003F
:10018000B7010008B7010008DFF80CD000F088F8CC
:1001900000480047D5170008A00400200648804703
:1001A00006480047FEE7FEE7FEE7FEE7FEE7FEE75C
:1001B000FEE7FEE7FEE7FEE7A51500088901000857
:1001C0002DE9F05F0546002092469B46884606468C
:1001D000814640241BE0284641464746224600F01F
:1001E0004EF853465A46C01A914110D3114618464C
:1001F000224600F035F82D1A67EB01084F462246DB
:100200000120002100F02CF817EB00094E41201EC0
:10021000A4F10104DFDC484631462A464346BDE8E6
:10022000F09FD2B201E000F8012B491EFBD27047CB
:100230000022F6E710B513460A4604461946FFF7B2
:10024000F0FF204610BD30B504460020034600E014
:100250005B1C934203D2E05CCD5C401BF8D030BD08
:10026000202A04DB203A00FA02F100207047914076
:10027000C2F1200320FA03F3194390407047202A6B
:1002800004DB203A21FA02F00021704721FA02F340
:10029000D040C2F120029140084319467047000047
:1002A0001CB509480090094801900546009C06E0ED
:1002B000E06840F0010394E8070098471034AC422E
:1002C000F6D3FFF765FF000030180008501800084B
:1002D000FEE700007047000072B600BFFEE70000B6
:1002E00070B5866D044600F02BF994F8351002299C
:1002F00028D105462068216C026822F016020260AF
:10030000426922F08002426109B9A16C19B1016809
:1003100021F008010160016821F00101016000BFC6
:1003200020680068C00715D000F00AF9401B0628B5
:10033000F6D320206065032084F83500002184F87E
:10034000341070BD802060650120002184F83410D5
:1003500070BD00BFE06D3F2101FA00F0B0600120E8
:1003600084F835000020002184F8341070BD0000AE
:1003700090F83510022909D1052180F83510006860
:10038000016821F001010160002070478021416572
:10039000012070472DE9F04F83B000F1200200F1F9
:1003A0003E4741F60045009207F1FF77C4F202058F
:1003B00008224FEAB726A84208BF072200254FF0BF
:1003C00000084FF00009072E38BF4FEAB72201920C
:1003D0000AE000BF09F1010908F10208B9F1100FA4
:1003E00005F1040500F0A2800F68012202FA09FE5F
:1003F00017EA0E0AEED0D1F804C003220CF003076E
:100400007E1E02FA08F4012E6FEA040B12D88468EB
:10041000CE6804EA0B0406FA08F6344384604468A4
:1004200024EA0E06CCF3001404FA09F426434660CD
:1004300004E000BF032F01D103271EE0C6688C68CB
:1004400006EA0B0604FA08F42643022FC66014D10C
:100450006FF00302009E02EA590756F807C005F044
:100460001C040F220B69A2402CEA0202A3401A438B
:10047000F251D1F804C00CF00307026807FA08F340
:1004800002EA0B021A431CF4403F0260A2D0002291
:1004900043F644030292C4F202031A6843F600448E
:1004A00042F480421A601A68C4F2010402F48042E5
:1004B0000292029A29F003024FF6084C2244CFF62A
:1004C000FF7C52F80C3005F00C070F26BE40B343FA
:1004D000019E06FA07F73B4342F80C30A2684B68CE
:1004E00042EA0A0743F60C4CDE0258BF22EA0A072A
:1004F000A760C4F2010CDCF800209E0242EA0A0761
:1005000058BF22EA0A07CCF8007062689E0342EAEC
:100510000A0758BF22EA0A0767602268DB0342EA3B
:100520000A0758BF22EA0A07276053E703B0BDE86D
:10053000F08F0000002A08BF0904816170470000A5
:1005400040F29C00C2F200000068704740F20000D8
:1005500040F29C01C2F20000C2F2000100780A6879
:10056000104408607047000080B543F60040C4F2B4
:100570000200016841F400710160016841F480618A
:100580000160016841F480710160032000F086F889
:100590000F2000F005F800F027F8002080BD0000D3
:1005A00070B540F20006C2F2000640F2080132784F
:1005B000C2F200014FF47A730968B3FBF2F2044609
:1005C000B1FBF2F1084600F061FB0F2C4FF0010582
:1005D00008D838B94FF0FF3021460022002500F03E
:1005E00031F87460284670BD82B0002043F64001A7
:1005F0000190C4F202014A6842F480424A604A68AB
:1006000002F480420192019A0090086840F0805004
:100610000860086800F080500090009802B07047B1
:10062000002848BF704700F01F01012202FA01F1C3
:100630001C2202EAD0004EF20012CEF200028150DB
:100640007047000010B54EF60C5CCEF2000CDCF8E2
:100650000030C3F3022E8EF00704042C28BF0424BC
:10066000BEF103034FF0FF3E0EFA04F438BF00233F
:10067000A14399400EFA03F39A43114300F00F028D
:1006800000F160430901043A03F564436244002821
:1006900048BF02F10C03197010BD00004EF60C515A
:1006A000CEF200010A684FF6FF031A4060F30A22F7
:1006B00042F0806040F0FD7008607047002804BF81
:1006C000012070472DE9F04143F60808C4F2020802
:1006D0000446D8F8F8030D4600F00700814207D918
:1006E00088F8F853D8F8F80300F00700A84277D14B
:1006F0002068810717D5410705D5D8F8001041F4C7
:10070000E051C8F80010010705D5D8F8001041F4F1
:100710006041C8F80010D8F80010A26821F0F0017C
:100720001143C8F80010C00740D1D8F8F80300F012
:100730000700854207D288F8F853D8F8F80300F08C
:100740000700A8424CD12068410707D5D8F800100F
:10075000E26821F4E0511143C8F80010000708D501
:10076000D8F80000216920F4604040EAC100C8F8D0
:10077000000000F07DF8D8F8001041F60802C1F33F
:100780000311C0F60002515C40F2080220FA01F1A8
:1007900040F20400C2F200000068C2F200021160E0
:1007A000FFF7FEFE0020BDE8F08100BF6068811EFB
:1007B000022907D258F8081C89015CBF0120BDE856
:1007C000F08111E0012807D158F8081C89035CBFAB
:1007D0000120BDE8F08107E058F8081C890703D420
:1007E0000120BDE8F08100BFD8F8001021F003011E
:1007F0000843C8F80000FFF7A3FE064641F2883719
:10080000D8F80000616800F00C00B0EB810F8CD0CC
:10081000FFF796FE801BB842F2D90320BDE8F081B5
:1008200040F2080043F60801C2F20000C4F20201DF
:100830000068096841F61802C1F38221C0F600027F
:10084000515CC8407047000040F2080043F60801C0
:10085000C2F20000C4F202010068096841F6180201
:10086000C1F34231C0F60002515CC840704700003D
:1008700010B543F60404C4F202046168C1F38101B7
:1008800042F20040C0F2F400DFE801F002040A0284
:1008900010BD00BF47F64000C0F27D1010BD00BF84
:1008A000206821682368490247F64001C0F27D11A3
:1008B00000F03F02C3F388105CBF42F20041C0F277
:1008C000F401A1FB00010023FFF77AFC216802225A
:1008D000C1F3014102EB4101B0FBF1F010BD00009A
:1008E000002804BF012070472DE9F04182B0044682
:1008F000007843F60006C007C4F202060CD0B068C8
:1009000000F00C00042840F081803068800303D59B
:100910006068002800F06881207880071BD5B068E7
:1009200010F00C0F09D0B06800F00C00082840F05F
:1009300087807068400200F183803068800703D5AB
:10094000E068012840F050813068216920F0F8000B
:1009500040EAC10030602078000713D420784007B7
:100960002AD4A569002D00F03A81B06800F00C008F
:10097000082840F0A580012D40F00E81012002B032
:10098000BDE8F0816069002800F082800020C4F298
:1009900047200121C0F8801EFFF7D2FD054600BFA9
:1009A000706F8007DAD4FFF7CBFD401B0228F7D920
:1009B000032002B0BDE8F081306C5FEAC0080AD4C1
:1009C00000200190306C40F080503064306C00F0BA
:1009D00080500190019847F20007C4F20007386880
:1009E000C00547D4386840F480703860FFF7A8FD30
:1009F000054600BF3868C0053CD4FFF7A1FD401B89
:100A00000228F7D9032002B0BDE8F081B06800F0F9
:100A10000C00082803D1706840023FF576AF61688A
:100A20003068B1F5803F07D0B1F5A02F40F09A8033
:100A300040F480203060306840F4803030609AE0CC
:100A4000E068002840F20000C4F247205CD0012199
:100A50000160FFF775FD0546306880073FF574AF0C
:100A6000FFF76EFD401B0228F6D9032002B0BDE857
:100A7000F08100BFA168306F012905D0052955D14B
:100A800040F004003067306F40F00100306756E0FE
:100A90000020C4F247200021C0F8801EFFF750FD5F
:100AA000054600BF706F80077FF558AFFFF748FD20
:100AB000401B0228F6D9032002B0BDE8F08100BF38
:100AC0000027C4F2472700203866FFF739FD022DC2
:100AD00005460DD13068800140F18A80FFF730FD76
:100AE000401B02284FF00300F4D902B0BDE8F081AA
:100AF0003068800173D5FFF723FD401B02284FF0BB
:100B00000300F5D9F1E700BF00210160FFF718FDF0
:100B1000054600BF306880077FF51DAFFFF710FD69
:100B2000401B02284FF00300F4D9DEE720F001005B
:100B30003067306F002920F0040030677AD0FFF76B
:100B4000FFFC054641F28837306F800700F1848052
:100B5000FFF7F6FC401BB842F6D9032002B0BDE80F
:100B6000F08100BF20F4803030603068002920F42C
:100B7000802030607AD0FFF7E3FC054630688003C0
:100B80003FF5CAAEFFF7DCFC401B6428F6D9032012
:100B900002B0BDE8F08100BF7068E16900F4800236
:100BA0008A4221D1216A00F03F028A421CD147F6D5
:100BB000C071626A0140B1EB821F15D1A16A4FF684
:100BC000FF73C903994300F44032A1F580318A4292
:100BD0000AD1E16A00F07060B0EB016F04D100202F
:100BE00002B0BDE8F08100BF012002B0BDE8F08195
:100BF00004F11C052FCD084340EA8210D9034FF6BB
:100C0000FF729143A1F5803140EA056008437060AE
:100C100001203866FFF794FC044600BF306880016D
:100C2000DDD4FFF78DFC001B02284FF00300F5D93F
:100C30005BE700BFFFF784FC054641F2883700BF41
:100C4000306F800708D5FFF77BFC401BB8424FF0A0
:100C50000300F5D949E700BFB8F1000F3FF581AEB9
:100C6000306C20F0805030647BE600BFFFF768FCFA
:100C7000054600BF306880037FF54EAEFFF760FC8D
:100C8000401B64284FF00300F4D92EE7411E0020DA
:100C9000B0EB116F1CBF012070474EF21002CEF274
:100CA000000251604EF62351CEF20001F0230B708A
:100CB0000721906011607047704700007047000086
:100CC000B0B582B001680A68CC684B6902F02F05A4
:100CD000202D04F0200505D125B102B0BDE8B040BB
:100CE00000F070BC5FEA027C1EBF03F0010E04F44A
:100CF000907313EB0E0341D1036BD50618D5012B6E
:100D000016D114F0100313D0002201920A68019248
:100D10004A680192019A496949064BD4818DC28D76
:100D2000C38D002B18BF914240F0068202B0B0BDC7
:100D300013062DD514F080032AD090F84120212AE3
:100D4000F4D18268B2F5805F03D10269002A00F015
:100D50007982026A531C036212784A60C28C013A9B
:100D60001304C284E2D1C86820F08000C860C8685B
:100D700040F04000C86002B0B0BD00BFD30718BF4C
:100D800014F4807340F0E280530700F1E580EAE05C
:100D90005206CBD514F04002C8D0CA6822F04002F7
:100DA000CA60202180F8411002B0BDE8B04000F0D8
:100DB0003BBB00BFC26B11684B68858D99B200299F
:100DC00000F0B480A94280F0B180C385D169B1F54B
:100DD000807F00F0A080016851E8031F026821F4C1
:100DE000807142E80313DBB1016851E8031F026818
:100DF00021F4807142E8031393B1016851E8031FA5
:100E0000026821F4807142E803134BB1016851E894
:100E1000031F026821F4807142E80313002BDAD12A
:100E2000016851E8051F026821F0010142E805133D
:100E3000BBB3016851E8051F026821F0010142E8D7
:100E4000051373B3016851E8051F026821F0010121
:100E500042E805132BB3016851E8051F026821F031
:100E6000010142E80513002BDAD11AE0016851E8CC
:100E7000051F026821F0400142E80513DBB101685B
:100E800051E8051F026821F0400142E8051393B1C3
:100E9000016851E8051F026821F0400142E805138E
:100EA0004BB1016851E8051F026821F0400142E89A
:100EB0000513002BDAD1202180F8421000210163B4
:100EC000016851E8031F026821F0100142E8031392
:100ED000DBB1016851E8031F026821F0100142E80C
:100EE000031393B1016851E8031F026821F0100158
:100EF00042E803134BB1016851E8031F026821F077
:100F0000100142E80313002BDAD1C16B04460846F6
:100F1000FFF7E6F9204602214163818DC28D891ACF
:100F200089B202B0BDE8B040FFF7C6BE8D427FF483
:100F3000FDAED269B2F5807F7FF4F8AE0222426343
:100F400002B0BDE8B040FFF7B7BE00BF436C43F04E
:100F500001034364530706D5BEF1000F03D0436C71
:100F600043F002034364930706D5BEF1000F03D09C
:100F7000436C43F004034364BCF1000F06D55EEA02
:100F8000050303D0436C43F008034364436C002B18
:100F90003FF4CCAE920605D525B1044600F012FB15
:100FA000216820464969426C01F0400102F00802C4
:100FB000891800F0B98000BF016851E8031F02687A
:100FC00021F4907142E80313BBB3016851E8031F99
:100FD000026821F4907142E8031373B3016851E889
:100FE000031F026821F4907142E803132BB30168D8
:100FF00051E8031F026821F4907142E80313002BAB
:10100000DAD11AE0016851E8051F026821F00101F8
:1010100042E80513DBB1016851E8051F026821F0C1
:10102000010142E8051393B1016851E8051F026808
:1010300021F0010142E805134BB1016851E8051F99
:10104000026821F0010142E80513002BDAD1016B9F
:10105000012924D1016851E8031F026821F0100121
:1010600042E80313DBB1016851E8031F026821F075
:10107000100142E8031393B1016851E8031F0268AD
:1010800021F0100142E803134BB1016851E8031F3E
:10109000026821F0100142E80313002BDAD120216D
:1010A00080F842100021016301684969490640F156
:1010B000C380016851E8051F026821F0400142E841
:1010C0000513DBB1016851E8051F026821F04001FA
:1010D00042E8051393B1016851E8051F026821F049
:1010E000400142E805134BB1016851E8051F026851
:1010F00021F0400142E80513002BDAD1C16B002931
:1011000000F09A8041F2B952C0F600020446084647
:101110000A65FFF72DF900283FF408AEE06B016D7A
:1011200002B0BDE8B04008470446FFF7C7FD002005
:10113000606402B0B0BD00BF891A00BF026852E807
:10114000032F036822F4907243E80325BDB30268BD
:1011500052E8032F036822F4907243E8032575B325
:10116000026852E8032F036822F4907243E80325D3
:101170002DB3026852E8032F036822F4907243E80B
:101180000325002DDAD11AE0026852E8052F036822
:1011900022F0010243E80525DDB1026852E8052F7F
:1011A000036822F0010243E8052595B1026852E880
:1011B000052F036822F0010243E805254DB10268BE
:1011C00052E8052F036822F0010243E80525002DAF
:1011D000DAD1202280F8422000220263026852E81D
:1011E000032F036822F0100243E80325DDB10268F3
:1011F00052E8032F036822F0100243E8032595B15B
:10120000026852E8032F036822F0100243E8032526
:101210004DB1026852E8032F036822F0100243E840
:101220000325002DDAD1022289B2426302B0BDE863
:10123000B040FFF741BD00BF02B0BDE8B040FFF7CE
:101240003DBD00BF026A32F8023B6FF35F234B6083
:10125000026283E5002804BF0120704710B50446F0
:1012600090F8410028B9002084F84000204600F0A2
:1012700021F8242084F841002068C16821F400513D
:10128000C160204600F01EFA2068016921F49041F7
:101290000161416921F02A014161C16841F40051B5
:1012A000C16000202021606484F8411084F842105D
:1012B000606310BD80B586B041F200010068C4F2E1
:1012C0000101002288420592CDE903220292019297
:1012D00002D006B080BD00BF43F630000092C4F2D9
:1012E0000200436943F010034361436903F01003B4
:1012F0000093009B0092036843F0010303600068C1
:1013000000F00100009000984FF4C06001900220AE
:10131000CDE90202032004900720059001F57040FA
:1013200001A9FFF737F8252000210022FFF78AF9ED
:101330002520FFF775F906B080BD000090F8423017
:10134000202B07D100294FF0010318BF002A05D137
:101350001846704702231846704700BF00230363F6
:10136000816222218285C285436480F8421001692E
:10137000006819B1C16841F48071C160416941F0F0
:1013800001014161C16841F02001C1601846704708
:10139000F0B581B00024C4F202040068A4F57041E5
:1013A00088421CBF01B0F0BD40F21007C2F2000736
:1013B000797838780A2921D1BE1C00253554204679
:1013C00002210022FFF7B6F841F62801C0F600011D
:1013D00030460722FEF737FF48B141F62001C0F63C
:1013E000000130460822FEF72EFF78B9012520467D
:1013F00002212A46FFF79EF808E000BF3E2805D8E4
:10140000421C38443A70817002E000BF00203870FE
:1014100040F25400791CC2F20000012201B0BDE884
:10142000F040FFF78BBF000070470000FEE70000B0
:10143000F0B587B0002543F630000695CDE9045598
:10144000CDE902550195C4F202000168002441F083
:10145000040101600168C4F2020401F00401019179
:10146000019901950168012241F080010160016844
:10147000062601F08001019101990195016801277B
:1014800041F0010101600068062100F001000190B7
:1014900001982046FFF74EF802A92046CDE90267E1
:1014A000CDE90457FEF776FF07B0F0BD80B540F2F6
:1014B000540041F20001C2F20000C4F20101002315
:1014C0004FF00C0C4FF4E13280E80E00C0E903331A
:1014D000C0E905C3C361FFF7BDFE002808BF80BD9A
:1014E000BDE88040FEF7F8BEFEE70000FEE7000022
:1014F0007047000070470000FFF728B870B592B041
:1015000006AC20463021FEF793FE002543F640004E
:101510000595CDE90355CDE901550095C4F20200CA
:101520000168022641F080510160006800F080509F
:101530000090009847F200000095C4F20000016896
:1015400041F480410160006800F480400090009800
:101550000120099010200A9008200E90A820CDE9C3
:101560000F060420119020460696CDE90C65FFF782
:10157000B7F918B172B600BFFEE700BF0F20CDE982
:1015800001064FF4A05004904FF48050059001A83C
:1015900005210395FFF792F810B172B6FEE700BF80
:1015A00012B070BD4EF68850CEF20000016841F4D2
:1015B0007001016070470000806B0021C185FFF75A
:1015C0007DBB000081B090F84210222921D18368B0
:1015D0000246B3F5805F09D152F8281F52F8183C33
:1015E000002B63D003685B680AE000BF52F8281F35
:1015F00013B90369002BF5D003685B6803F07F0320
:101600000B70116801311160C18D01390A04C18567
:1016100002D001B0704700BF0168CA6822F0200202
:10162000CA60CA6822F48072CA604A6922F0010264
:101630004A61202180F8421000214163026B012A97
:101640003CD10163016851E8031F026821F01001D9
:1016500042E80313DBB1016851E8031F026821F07F
:10166000100142E8031393B1016851E8031F0268B7
:1016700021F0100142E803134BB1016851E8031F48
:10168000026821F0100142E80313002BDAD101684F
:101690000A68D20606D5002200920A6800924968BC
:1016A00000910099818D01B0FFF706BB0268526876
:1016B0006FF35F2221F8022B8162A5E701B0FFF7EB
:1016C00067BE0000B0B50446006804F108030ECB05
:1016D0000569194325F440552A4302616269E369AB
:1016E0001143C268194349F20C639A431143C16024
:1016F0004169A26921F4407141F20043114340F471
:101700008062C4F201039A42416103D1FFF79CF861
:1017100002E000BFFFF784F8E1694FF69C7563684B
:101720001922C0F6FF75B1F5004FA0FB02011FD1D1
:101730005A00DB0FFEF744FD48F21F51C5F2EB11D2
:10174000A0FB01235A0905F1805302FB0300322359
:1017500003EBC000A0FB01014FF4F87000EA111088
:1017600000EB0210C1F34211084421688860B0BD4B
:101770009A009B0FFEF724FD48F21F51C5F2EB11B2
:10178000A0FB01235A0902FB0500322303EB0010E2
:10179000A0FB0101F02000EA511000EB0210C1F3A0
:1017A0004311084421688860B0BD000040F2100079
:1017B000C2F20000411C40F25400C2F200000122BB
:1017C000FFF7BCBD40F25400C2F20000FFF778BA48
:1017D000FEE70000FEF7C8FEFFF790FEFFF728FEC9
:1017E000FFF764FEFFF7E2FFFEE702E008C8121F02
:1017F00008C1002AFAD170477047002001E001C1FA
:10180000121F002AFBD170470000000000000000FA
:101810000102030406070809000000000102030496
:101820004C45445F4F4646004C45445F4F4E0000D8
:10183000501800080000002010000000EA170008FF
:10184000601800081000002090040000FA1700083B
:1018500001000000100000000024F400000000005F
:040000050800018965
:00000001FF
